:020000040800F2
:1000000008280020799300087D9100087F9100085E
:1000100083910008879100088B9100080000000080
:100020000000000000000000000000008F910008A8
:10003000919100080000000093910008959100083C
:100040008F9300088F9300088F9300088F93000808
:100050008F9300088F9300088F9300088F930008F8
:100060008F9300088F9300088F9300088F930008E8
:100070008F9300088F9300088F9300088F930008D8
:100080008F9300088F9300088F9300088F930008C8
:100090008F9300088F9300088F9300088F930008B8
:1000A0008F9300088F9300088F9300088F930008A8
:1000B0008F9300081F4C0008696B00088F9300089D
:1000C0008F9300088F9300088F9300088F93000888
:1000D0008F930008F56F00088F9300088F93000836
:1000E0008F9300088F9300088F9300088F93000868
:1000F0008F9300088F9300088F9300088F93000858
:100100008F9300088F9300088F9300088F93000847
:100110008F9300088F930008756300088F93000881
:100120008F9300088F9300088F9300088F93000827
:1001300000F002F800F076F80AA090E8000C824483
:100140008344AAF10107DA4501D100F06BF8AFF260
:10015000090EBAE80F0013F0010F18BFFB1A43F0A5
:100160000103184770E8000090E800000A444FF0CF
:10017000000C10F8013B13F0070408BF10F8014B06
:100180001D1108BF10F8015B641E05D010F8016B4B
:10019000641E01F8016BF9D113F0080F1EBF10F8AF
:1001A000014BAD1C0C1B09D16D1E58BF01F801CBD2
:1001B000FAD505E014F8016B01F8016B6D1EF9D555
:1001C0009142D6D37047000000230024002500266A
:1001D000103A28BF78C1FBD8520728BF30C148BFAA
:1001E0000B60704766290EF04C80642909F0188175
:1001F000632909F05085732909F05585002070475F
:100200001FB509F00BFE0400002000210CF018FEC1
:10021000401C6060002000210CF028FEE0601FBD43
:1002200010B510BD09F044FF1146FFF7E9FF00F0DB
:1002300009F80AF0B5F903B4FFF7F2FF03BC06F0C2
:1002400019FE000010B509F016F806F047FC06F09C
:100250000BFE41F61F41092006F059FC4FF4E13036
:1002600006F078FE06F00AFA0120084908600A2024
:1002700006F0AEFC00200649C1F8900106F0EAFC49
:1002800000F0F4FB02F08AFC002010BD9001234234
:10029000000023421CB5FEA000680190FDA000688C
:1002A000009004224FF4A00101A806F005FB1022E3
:1002B000F949FA4806F000FB1022F7491031F848D6
:1002C00006F0FAFA1022F4492031F64806F0F4FA62
:1002D0000422F1493031F44806F0EEFA0422EE49E6
:1002E0003431F24806F0E8FA0422EB493831F0489C
:1002F00006F0E2FA0422E8493C31EE4806F0DCFA66
:100300000422E5494031EC4806F0D6FA0422E249DD
:100310004431EA4806F0D0FA0422DF494831E8487F
:1003200006F0CAFA04224FF05011E64806F0C4FA6B
:100330000C22D9495031E44806F0BEFA0422D649CD
:100340005C31E24806F0B8FA0422D3496031E04853
:1003500006F0B2FA0422D0496431DE4806F0ACFA65
:1003600004224FF4A001684606F0A6FADAA009F0CC
:1003700021F8DBA009F01EF81CBD70B5D6A009F06D
:1003800019F8DCA009F016F8D3A009F013F8C34956
:1003900008680DF0D7FB044622460B46D9A009F0A9
:1003A00009F8BE4948680DF0CDFB044622460B46CD
:1003B000D7A008F0FFFFB94988680DF0C3FB0446D9
:1003C00022460B46D4A008F0F5FFB449C8680DF0EA
:1003D000B9FB044622460B46D1A008F0EBFFBEA0B5
:1003E00008F0E8FFD0A008F0E5FFBBA008F0E2FFAE
:1003F000AB4908680DF0A6FB044622460B46D1A087
:1004000008F0D8FFA64948680DF09CFB0446224638
:100410000B46BFA008F0CEFFA14988680DF092FB03
:10042000044622460B46BCA008F0C4FF9C49C8689D
:100430000DF088FB044622460B46B9A008F0BAFF2F
:10044000A5A008F0B7FFC2A008F0B4FFA2A008F072
:10045000B1FF94480168C6A008F0ACFF914841681C
:10046000C6A008F0A7FF8F488168C6A008F0A2FFC9
:100470008C48C168C5A008F09DFF97A008F09AFFBE
:10048000C4A008F097FF94A008F094FF8648006885
:100490000DF058FB044622460B46CCA008F08AFF1C
:1004A000824800680DF04EFB044622460B46CAA067
:1004B00008F080FF88A008F07DFFC94808F07AFFA7
:1004C00085A008F077FF7A4800680DF03BFB0446F2
:1004D00022460B46C3A008F06DFF764800680DF079
:1004E00031FB044622460B46C1A008F063FF724868
:1004F0000168C1A008F05EFF704800680DF022FBA3
:10050000044622460B46BEA008F054FF6C48006823
:100510000DF018FB044622460B467FA008F04AFF68
:10052000684800680DF00EFB044622460B467CA08E
:1005300008F040FF68A008F03DFFB3A008F03AFFC4
:1005400065A008F037FF604908680DF0FBFA044623
:1005500022460B46B1A008F02DFF5B4948680DF01C
:10056000F1FA044622460B4669A008F023FF5649DB
:1005700088680DF0E7FA044622460B4666A008F0AC
:1005800019FF55A008F016FFA7A008F013FF52A00E
:1005900008F010FF4D4800680DF0D4FA04462246DA
:1005A0000B46A5A008F006FF4948006805F072FF59
:1005B00006460DF0C7FA044622460B46A1A008F0F5
:1005C000F9FE4448006805F085FF06460DF0BAFACA
:1005D000044622460B469DA008F0ECFE70BD10B507
:1005E0008CB09C4AD2E901311068D268CDE909315A
:1005F0000B920890974B1033D3E90020D3E90213F4
:1006000005AC0BC40492934B2033D3E90012D3E919
:100610000203CDE90203CDE90012002412E008A88C
:1006200050F824001D4941F8240004A850F8240083
:100630001B4941F824005DF824001A4941F82400C0
:10064000601CC4B2042CEADB04F0BDF982481649F0
:1006500008601649086000201549086044F62060CB
:10066000154908600020134908607C481349086058
:100670007B48134908607B481249086000201249F2
:100680008860486008607848104908607748EFE063
:100690003030300056303100040050003006002069
:1006A0002006002040060020B0000020B4000020FA
:1006B000AC000020C4000020A8000020B8000020EA
:1006C000BC000020C0000020EC01002044010020FC
:1006D000480100204C0100206563686F3A0000006B
:1006E00053657474696E67732053746F7265640D1B
:1006F0000A00000053746570732070657220756E77
:1007000069743A0020204D393220582566000000D7
:100710002059256600000000205A256600000000D0
:10072000204525660D0A00004D6178696D756D20C4
:1007300066656564726174657320286D6D2F732919
:100740003A0D0A0020204D32303320582566000033
:100750004D6178696D756D20416363656C6572618B
:1007600074696F6E20286D6D2F7332293A0D0A005F
:1007700020204D3230312058256C64002059256CE2
:1007800064000000205A256C640000002045256CA0
:10079000640D0A00416363656C65726174696F6E14
:1007A0003A20533D616363656C65726174696F6E75
:1007B0002C20543D726574726163742061636365BB
:1007C0006C65726174696F6E0D0A000020204D32F5
:1007D0003034205325660000205425660D0A0000A1
:1007E000B4E7000820204D32303520532566000044
:1007F00020542566000000002042256C64000000A3
:100800002058256600000000486F6D65206F666601
:1008100073657420286D6D293A0D0A0020204D3231
:1008200030362058256600005049442073657474A2
:10083000696E67733A0D0A002020204D3330312055
:1008400050256600204925660000000020442566EA
:100850000D0A000084E3000800007A440000A04173
:10086000CDCCCC3E0000A0409A99B141713D8A3F69
:1008700005F000FE47490860474805F01BFE474960
:10088000086005F0A7F9FFF705FDAFF2B41008F016
:1008900091FD43A008F08EFD0CB010BD1CB5AFF269
:1008A0000C200068009004224FF4A00101A805F07C
:1008B000BFFF032201A9684608F016FF002864D193
:1008C00010224049404805F0B3FF10223D49103145
:1008D0003E4805F0ADFF10223A4920313C4805F072
:1008E000A7FF04F070F8042236493031394805F08A
:1008F0009FFF042233493431374805F099FF042221
:1009000030493831354805F093FF04222D493C31F8
:10091000334805F08DFF04222A494031314805F063
:1009200087FF0422274944312F4805F081FF042224
:10093000244948312D4805F07BFF04224FF0501127
:100940002B4805F075FF0C221E495031294805F04F
:100950006FFF04221B495C31274805F069FF042220
:10096000184960310B4805F063FF042215496431D2
:100970000A4805F05DFF05F02DF9AFF2A42008F05C
:1009800019FD1EA008F016FD01E0FFF728FEFFF795
:10099000F4FC1CBD48010020000010434C01002065
:1009A00048617264636F6465642044656661756C58
:1009B000742053657474696E6773204C6F6164654D
:1009C000640D0A00040050003006002020060020BC
:1009D00040060020B0000020B4000020AC00002041
:1009E000C4000020A8000020B8000020BC000020A7
:1009F000C0000020EC0100204401002053746F72FD
:100A000065642073657474696E67732072657472AF
:100A100069657665640D0A0010B50446FA480068F9
:100A2000082822DAF949FA4A126801EBC210214675
:100A300008F036FEF7A008F0BDFCF448F44A12684E
:100A400000EBC211F5A008F0B5FCF1490968481C9B
:100A5000C11700EB5171C910A0EBC101EC4A116044
:100A6000E9480068401CE849086010BD10B5FFF770
:100A700015FF04F053FB05F0BBFA02F091FD10BD29
:100A800072B604F04FFE0120E8490860E849C1F859
:100A90009001E8490860E8490860E8490860E8A072
:100AA00008F088FCE8A008F085FC00BFFEE710B560
:100AB000ED480068ED490968401AED490968884227
:100AC00004D9EB48006808B1FFF7DAFFE94800688D
:100AD000B8B1E5480068E5490968401AE549096880
:100AE00088420ED903F0ADFF58B90120CF49086004
:100AF000CF49C1F89001CF490860CF490860CF497C
:100B0000086002F010FE10BD10B5D7480068D74944
:100B10000860D9A008F04EFCD8A008F04BFC10BD2E
:100B200070B5BA49D64A126801EBC212D44B1B68A1
:100B300001EBC311D34B1B68591A491C50180021F3
:100B40000CF070F904460CF0A7F970BD10B504461E
:100B5000AE49CB4A126801EBC210214608F084FD71
:100B6000C84908600846006808B1012010BD00208F
:100B7000FCE710B506F0E7F9C3A008F01BFCC54878
:100B80000168491CC4A008F015FCFFF7BDFF10BDAB
:100B900070B50446C1480078C14908705420FFF779
:100BA000D5FF00282ED0FFF7BBFF05460DF076F9E4
:100BB000BB49087008460078012823DB95A008F09F
:100BC000F9FB682C06D0692C08D06D2C0AD0DA2CE1
:100BD00010D10BE0B3A008F0EDFB0BE0B7A008F0DC
:100BE000E9FB07E0BBA008F0E5FB03E0BFA008F0CD
:100BF000E1FB00BF00BFAA480178C2A008F0DAFB01
:100C0000012070BD0020FCE710B580499C4A1268A5
:100C100001EBC2129A4B1B6801EBC311994B1B6885
:100C2000591A491C50180A22002108F0E5FC10BD91
:100C300010B50446B44A52F82410B44A52F82400BD
:100C40000CF0ACFFB24941F82400AF4A52F824102E
:100C5000B04A52F824000CF0A1FFAF4941F824003B
:100C6000A94A52F82410AD4A52F824000CF096FF1D
:100C7000AB4941F8240010BD2DE9FC478246BAF18A
:100C8000000F01D101200AE0BAF1010F01D10120CA
:100C900005E0BAF1020F01D1012000E00020002898
:100CA0007ED000209A4941F82A000C46E368A268E9
:100CB0006168206803F07CFD9A4911F90A000CF084
:100CC000CAFB04460D46984951F82A000CF03AFF39
:100CD00006460022954B0CF025FC804622462B460A
:100CE0000CF020FCCDE900010CF0D6F8904941F859
:100CF0002A00904850F82A008F4908608F498E4892
:100D000000680CF0B9FF044664480078884DCDE9CE
:100D10000040EB68AA686968286802F03CFD04F0AE
:100D200095FA00207A4941F82A000C46E368A26847
:100D30006168206803F03CFD7A4911F90A000DF062
:100D4000CDF805467E4850F82A0080F00044294638
:100D500020460DF023F9764941F82A007749764874
:100D600000680CF089FF04464C480078704DCDE9CE
:100D70000040EB68AA686968286802F00CFD04F07E
:100D800065FA684911F90A000DF0A8F804466C48A4
:100D900050F82A104FF080400DF000F9054600E0B1
:100DA0002FE021460DF0FAF8614941F82A00614927
:100DB00051F82A004FF080410CF05EFF5E49086058
:100DC0005E495D4800680CF057FF044633480078E0
:100DD000574DCDE90040EB68AA686968286802F0C1
:100DE000DAFC04F033FA5046FFF722FF484850F887
:100DF0002A00294641F82A0000204F49086003F0E4
:100E0000A5FEBDE8FC8700007C0000202002002039
:100E1000780000206563686F3A000000656E7175A8
:100E200065696E672022257322000000B48122428A
:100E3000000024429C0124429C012242BC01214228
:100E40004572726F723A00005072696E746572205A
:100E500068616C7465642E206B696C6C2829206352
:100E6000616C6C6564210000A801002090000020E6
:100E700094000020980000206F6B00000A00000022
:100E8000740000208C000020526573656E643A2067
:100E9000000000006000002025640A0044000020DB
:100EA000A40000204D31303420496E76616C6964B5
:100EB0002065787472756465722000004D3130359C
:100EC00020496E76616C696420657874727564651A
:100ED000722000004D31303920496E76616C6964B2
:100EE0002065787472756465722000004D32313867
:100EF00020496E76616C69642065787472756465EA
:100F00007220000025640000EC010020C0E300080E
:100F1000DC010020B4E30008F80100202C000020D0
:100F200020000020D8E30008380000200000F83F2F
:100F30000402002000000020500000200000704249
:100F4000CCE300082DE9F04F87B08146FD494868A1
:100F50000CF0F8FD05460E46FA4908680CF0F2FD63
:100F600007462A4633460BF079F882460BF094FF89
:100F70000690F54800680CF0B1FF0490F348016852
:100F800004980DF00BF8F24905900CF075FE8346BD
:100F90000CF0D8FD07460022EE4B0CF06BF805462E
:100FA0000BF07AFF8246EC4801780698CDE902A062
:100FB000CDE90491022001210023E24ACDE900108D
:100FC000E649E74801F040FE002407E0E34850F816
:100FD0002400E34941F82400601C44B2042CF5DBF2
:100FE000E0480068E049086007B0BDE8F08FF8B558
:100FF0000020009000242DE0DC49085DFFF7A6FDED
:1010000000B3DB49095D11B9DA49097809B1012159
:1010100000E0002108460CF061FF0746D04850F878
:10102000241038460CF0BAFF0546FFF779FD064656
:1010300029460CF0B3FDC94941F8240001200DF800
:10104000040005E0C64850F82400C44941F82400D3
:10105000601C44B2042CCFDB4620FFF777FD88B13B
:10106000FFF75EFDC4490860084600680CF06AFDA1
:101070000546002213460CF053FB03D2BE4800681D
:10108000B2490860F8BD10B5FFF7B1FF4920FFF77E
:101090005DFD20B1FFF744FDAA49086002E0002091
:1010A000A84908604A20FFF751FD20B1FFF738FD3D
:1010B000A449486002E00020A249486010BD10B574
:1010C0000446AE4A116820680CF034FF02D2AB48E7
:1010D00000682060A94A516860680CF02BFF02D2BA
:1010E000A64840686060A54A9168A0680CF022FF9D
:1010F00002D2A2488068A060A14A116820680DF061
:1011000019F802D29E48006820609D4A51686068C4
:101110000DF010F802D29A4840686060984A9168D1
:10112000A0680DF007F802D295488068A06010BD55
:101130002DE9FC5F8948FFF7C2FF8A4800688A49A9
:101140000860864A1168864A10680CF057FE18D16C
:10115000824A5168824A50680CF050FE11D17C4995
:101160007A4800680CF088FD05467B4800787B4E85
:10117000CDE90050F368B2687168306802F00BFB8B
:1011800024E0714800680CF0A9FE01906F480168E6
:1011900001980CF003FF83466D490CF06DFD82460B
:1011A0000CF0D0FC074600226A4B0BF063FF0546AB
:1011B0000BF072FE814668480078684DCDE90090DA
:1011C000EB68AA686968286802F0E5FA002407E07D
:1011D000624850F82400624941F82400601C44B27F
:1011E000042CF5DBBDE8FC9F00B591B000200F900A
:1011F0004720FFF7ABFC00287CD0FFF791FC0D9057
:101200000CF030FE042830D007DC78B101280ED075
:10121000022816D0032857D11DE01C2855D05A2883
:1012200069D05B2868D05C28F5D141E100BF554802
:10123000007828B9FFF7DBFEFFF77AFF11B000BD99
:1012400000BF5048007828B9FFF71DFF0120FFF7C5
:1012500079FEF3E700BF4B48007828B9FFF713FF8A
:101260000020FFF76FFEE9E700BF0020109050203C
:10127000FFF76CFC28B1FFF753FC0D900CF00EFE4D
:1012800010905320FFF762FC48B1FFF749FC3E493C
:101290000C900CF083FE0D900CF000FE109003F00B
:1012A000D5FF304910980968084410902D4800680F
:1012B0002D49086003E004F0A5FCFFF7F8FB29487E
:1012C000016810988142F6D33BE1204800682F491D
:1012D00008601D4800682E49086064201A490860AB
:1012E0002048006820490860012003F037FC0020F6
:1012F0000E900DE027E1D3E0D6E019490E9851F8A1
:101300002010164A42F820100E98401C40B20E9051
:101310000E980428F1DB00200C490860134800787F
:101320000D90FFF713FCA8BB104840780D90FFF715
:101330000DFC78BB0D4880780D90FFF707FC48BB8B
:10134000012029E014020020140000205000002099
:1013500000007042000059404400002004020020B8
:10136000DC010020A801002090000020DBE3000841
:10137000100000206800002054000020F801002028
:1013800020000020A500002000007A445800002022
:1013900018000020FFE70020F74908700846007891
:1013A00028B9F64800780D90FFF7D0FB10B1002067
:1013B000FFF762FCF048007828B9F04840780D90BB
:1013C000FFF7C4FB10B10120FFF756FCEA48007894
:1013D00028B9EA4880780D90FFF7B8FB10B10220D9
:1013E000FFF74AFCE54800780D90FFF7AFFB70B1BE
:1013F000FFF70AFC58B1FFF793FB0D90E048006837
:1014000001460C900D980CF0C9FBDE490860DB48E2
:1014100040780D90FFF79AFB70B1FFF7F5FB58B1DC
:10142000FFF77EFB0D90D648406801460C900D9862
:101430000CF0B4FBD3494860D04880780D90FFF79A
:1014400085FB70B1FFF7E0FB58B1FFF769FB0D902A
:10145000CB48806801460C900D980CF09FFBC94961
:101460008860C848C0680D90C64880680C90C54820
:1014700040680B90C34800680A900BA90EC903F09E
:1014800097F9C1480068C1490860C1480068C1496E
:101490000860C1480068C149086003F057FB50E08C
:1014A0000020BF4908704CE00120BD49087048E0A9
:1014B000B248C0780D90FFF749FB08B903F0C6FEAB
:1014C00000200E9039E0AD490E98085C0D90FFF7B2
:1014D0003DFB70B30E9803280BD1FFF721FBA94AFF
:1014E0000E9942F821001046C0680D9003F02BFAC7
:1014F0001FE0FFF715FBA2490D900E9851F8200050
:1015000001460C900D980CF049FB9E4A0E9942F84A
:1015100021001046C0680D90104680680C9010465F
:1015200040680B90104600680A900BA90EC903F0A2
:101530003FF90E98401C40B20E900E980428C2DB72
:1015400000BF01F09BB84D20FFF700FB002801F021
:101550003A80FFF7E5FA0D900CF084FC7F287CD0F0
:1015600045DC55287AD020DC1F2878D00EDC1028E6
:1015700076D006DCA8B3012873D00F2841F0228072
:101580009DE011286ED01228F8D1CCE252286AD002
:1015900006DC2A2868D0502867D05128EED1B9E25D
:1015A000532879D05428E9D1BEE2722875D00EDCD8
:1015B0006A2873D006DC5C2871D0682870D069284E
:1015C000DCD111E16B286CD06D28D7D156E1782899
:1015D00068D007DC73286FD075286ED07728CDD1FE
:1015E000FDE366E0792869D07E28C7D18DE2B0F5A9
:1015F000967F73D020DCCB2871D00EDCBE286FD054
:1016000006DC80286DD081286CD08C28B6D1E1E032
:10161000C92868D0CA28B1D1FEE3DC287ED006DC18
:10162000CC287CD0CD287BD0CE28A7D1F5E3DD28EF
:1016300077D0F028A2D1F1E3B0F5FA7F72D01CDCAC
:10164000B0F5AF7F6FD011DCA0F22D1000286BD069
:1016500001286AD0022891D1FEE357E218E343E063
:101660002EE027E02DE056E26CE052E2A0F25F109F
:1016700000287CD0312887D1EFE340F28B32811AE9
:10168000904275D00FDCA0F2F510002871D001282F
:1016900070D0022887D1FBE341E279E30FE206E351
:1016A00051E02EE2F5E3012965D05C2988D100F0F4
:1016B0007FBF00BF00F086BF58E35BE3EAE3F9E7D2
:1016C000F8E70020374908603749C1F890013749E9
:1016D00008603749086037490860EBE7F2E3F2E356
:1016E000ABE114E214E2EFE33348006833490968E0
:1016F000401A4FF47A71B0FBF1F00D902648006863
:101700002D4908603C210D98B0FBF1F00B900D982D
:10171000B0FBF1F201FB12000C9007E0F8E3F8E3F4
:10172000F8E3F8E3F8E3F8E3F8E3F8E324A0DDE90D
:101730000B1207F03FFEAFF6241007F03BFE04F05B
:1017400035FFB7E7B6E76820FFF722FA00B1B1E747
:101750005320FFF7FBF938B1FFF7E2F90D901C4871
:1017600001780D9803F0BDFF04F05DFDA2E7FCE3F6
:10177000FCE3FCE3FCE3FCE34C000020DBE30008BB
:10178000EC010020DC010020580000205000002067
:101790001800002014000020A80100209000002064
:1017A00068000020B4812242000024429C012442AF
:1017B0009C012242BC012142A00000209C0000208C
:1017C0002564206D696E2C202564207365630000FC
:1017D000A40000205320FFF7B9F920B1FFF7A0F9CA
:1017E0000D9003F06DFF65E76920FFF7D1F900B1B7
:1017F00060E7FC48007804F085FE09900CF0A2F93F
:10180000CDE90C01F748007804F074FE09900CF063
:1018100099F9CDE90A01DDE90C01CDE90001F2A059
:10182000DDE90A2307F0C6FD04F074FE09900CF010
:1018300089F9CDE90C0104F062FE09900CF082F9FF
:10184000CDE90A01DDE90C01CDE90001EAA0DDE9FD
:101850000A2307F0AFFDE348007804F0CAF9014617
:101860000D90E9A007F0A6FD4FF0FF3004F0C1F99C
:1018700001460D90E6A007F09DFDDFE46D20FFF727
:1018800087F900B116E70020E34908705320FFF7FD
:101890005DF938B1FFF744F90B90D24801780B9805
:1018A00003F01FFF5320FFF751F918B1FFF738F984
:1018B000DA4908604220FFF749F918B1FFF730F91B
:1018C000D74908604620FFF741F930B1FFF728F902
:1018D000D44908600120D049087004F0A4FCD24823
:1018E00000681090BF48007804F01AFE0D904FF089
:1018F000FF300C9087E0CC4801681098081AB0F5CA
:101900007A7F2DD9B748007804F0F4FD09900CF0E7
:1019100019F9CDE90A01B348007800900B46C3A03D
:101920000A9A07F047FDC4A007F044FD0C98002870
:1019300010DBBD4801680C98081A42F21071081AB1
:101940004FF47A71B0FBF1F01090BCA0109907F041
:1019500031FD02E0BBA007F02DFDB34800681090F8
:1019600004F050F9FFF7A3F80C98401CA0B90D98AB
:1019700090B19C48007804F0C5FD4FF07E5108906E
:101980000CF00AFC0A909748007804F0B3FD099027
:101990000A990CF0CFFB33D90C98401CA0B90D98D4
:1019A00090B99048007804F0ADFD4FF07E5108905A
:1019B0000CF0F4F80A908B48007804F09BFD099035
:1019C0000A990CF0B7FA1BD90C9800281BDB854844
:1019D000007804F097FD09908248007804F08AFDB1
:1019E000089009990CF0D8FB0A900CF03BFA0B9088
:1019F000002801DB0B9801E00B984042032802DD30
:101A0000894800680C900C98401C00283FF473AF84
:101A10000C98002808DB844801680C98091A42F2E7
:101A200010708142FFF467AF7F4800688649086004
:101A30007D480068854908603CE65320FFF786F83A
:101A400020B1FFF76DF80D9003F03AFE764800687C
:101A500010902BE0744801681098081AB0F57A7F4E
:101A600020D97B48007804F045FD0D9004F047FD37
:101A700007900CF067F8CDE90A010D980CF062F8B8
:101A8000CDE90801DDE90A01CDE9020170480078DD
:101A9000009070A0DDE9082307F08CFC6248006824
:101AA000109000BF04F0AEF8FFF701F804F04BFD12
:101AB0000028CFD15C48006864490860FAE55320EB
:101AC000FFF744F8C8B1FFF72BF800210C900CF099
:101AD00031FA01D200200AE0FFF722F862490C90A7
:101AE0000CF028FB01D2604801E0FFF719F80D90D7
:101AF0000CF0B8F95D49086002E0FF205B4908601E
:101B0000D8E5002059490860D4E5D3E5D2E5D1E510
:101B1000D0E5CFE5CEE500205549C870CAE50120E3
:101B20005349C870C6E500BF5320FFF70FF858B1FE
:101B3000FEF7F6FF4F490C900CF030FA0D900CF0C8
:101B4000ADF94D4908604BE04C4800780C90FEF729
:101B5000FDFF98B9494840780C90FEF7F7FF68B947
:101B6000464880780C90FEF7F1FF38B94348C078BA
:101B70000C90FEF7EBFF08B9012000E000200D906B
:101B80000D9850B103F062FB01203D4908603D49CA
:101B9000C1F8BC0103F07AFB21E003F057FB5820A9
:101BA000FEF7D4FF10B10120374908605920FEF735
:101BB000CDFF10B10120354908605A20FEF7C6FF5D
:101BC00018B1012031490C3108604520FEF7BEFFF5
:101BD00028B101202A4908602A49C1F8BC0100BF88
:101BE00068E50000A40000206F6B20543A252E31D8
:101BF00066202F252E31660020423A252E316620A0
:101C00002F252E316600000020403A256400000098
:101C10002042403A25640A00D8000020D00000206D
:101C2000CC000020D4000020A8010020543A252E2A
:101C3000316620453A25640020573A00256C640A35
:101C4000000000003F0A00009C00002090000020DF
:101C500044000020543A252E316620453A25642060
:101C6000423A252E31660A0000007F4348000020DA
:101C70001000002000007A4498000020DBE30008F8
:101C80009C01224200002142B48122429001244260
:101C90005320FEF75BFFFEF743FFF7490C900CF073
:101CA0007DF90D900CF0FAF8F449086002E5002087
:101CB0000E9057E0F2490E98085C0D90FEF746FF33
:101CC000F0B30E98032843D1FEF72AFF0D900D982C
:101CD0000BF038FF0022EB4BCDE90A010BF0E6FBDD
:101CE00030D2E9490E9851F820000B900D990BF075
:101CF000C3FF0C90E5480C9900680CF04FF9E349DC
:101D00000860E3490E9851F820000B900C990CF0F4
:101D100045F9DF4A0E9942F82100DE490E9851F844
:101D2000200009900CF0F2F80A900C990CF036F9AA
:101D30000B900CF0B3F8D74A0E9942F8210000E05E
:101D40000CE000BFD04ADDE90D0142F8210005E0BA
:101D5000FEF7E6FECC4A0E9942F821000E98401C90
:101D600040B20E900E980428A4DBA3E4CA4807F002
:101D700021FB9FE42A21C9480068401D07F074FC3C
:101D80000F900F9818B100210F9800F8011C91E4F2
:101D9000C348C06805900BF0D5FECDE90C01C048E2
:101DA000806805900BF0CEFECDE90A01BC48406882
:101DB00005900BF0C7FECDE90801B9480068059011
:101DC0000BF0C0FECDE90601DDE90C01CDE904010F
:101DD000DDE90A01CDE90201DDE9080100E062E088
:101DE000CDE90001AFA0DDE9062307F0E3FAB2A0D8
:101DF00007F0E0FA022003F042FA05900CF06EF8CA
:101E00000690A14880680146059006980BF034FFC3
:101E100007900BF097FE02E0ACE009E109E2CDE9A2
:101E20000C01012003F02BFA05900CF057F80690F6
:101E3000954840680146059006980BF01DFF0790F5
:101E40000BF080FECDE90A01002003F018FA05909E
:101E50000CF044F8069001E0F0E11BE28A480068CB
:101E60000146059006980BF007FF07900BF06AFEFD
:101E7000CDE90801DDE90C01CDE90201DDE90A0146
:101E8000CDE900018FA0DDE9082307F093FA99E37B
:101E90000CE200E003E0002002F060FE92E301208B
:101EA00002F05CFE8EE38BA007F084FA88A007F0B6
:101EB00081FA8FA007F07EFA8F480068012804D1CC
:101EC0008EA003E04EE156E032E08FA00D9007F0C7
:101ED00071FA7FA007F06EFA8DA007F06BFA8E48BA
:101EE000006880F0010008B184A000E086A00D9099
:101EF00007F060FA76A007F05DFA88A007F05AFABA
:101F00008548001D006880F0010048B17BA008E012
:101F1000A6E048E058E019E1BFE12EE23CE189E1AA
:101F200079A00D9007F046FA69A007F043FA49E35B
:101F300000200E9013E052490E98085C0D90FEF7B9
:101F400005FE40B1FEF7ECFD0D900BF0A7FF754AC2
:101F50000E9942F821000E98401C40B20E900E9847
:101F60000428E8DB02F02FFD2CE351E2A1E197E128
:101F700099E1E7E126E300200E9010E040490E9839
:101F8000085C0D90FEF7E2FD28B1FEF7C9FD404A5E
:101F90000E9942F821000E98401C40B20E900E9807
:101FA0000428EBDB0EE35320FEF7D0FD18B1FEF75B
:101FB000B7FD5D4908605420FEF7C8FD18B1FEF773
:101FC000AFFD5A490860FDE25320FEF7BFFD18B18E
:101FD000FEF7A6FD564908605420FEF7B7FD18B17C
:101FE000FEF79EFD534908604220FEF7AFFD30B179
:101FF000FEF796FD0D900BF051FF4F4908605820F9
:10200000FEF7A4FD18B1FEF78BFD4C4908605A207D
:10201000FEF79CFD18B1FEF783FD49490860452095
:10202000FEF794FD18B1FEF77BFD18490860C9E280
:1020300000200E9010E012490E98085C0D90FEF7FB
:1020400085FD28B1FEF76CFD3E4A0E9942F821004D
:102050000E98401C40B20E900E980328EBDBB1E2C4
:102060005320FEF773FD30B1FEF75AFD0D900BF0D3
:10207000F9FE35490860A5E200007A44940000208A
:10208000DBE300080000344030060020C0000020E0
:1020900020060020500600206CE800088C0000207C
:1020A000DC010020583A256620593A2566205A3A24
:1020B000256620453A25660020436F756E742058CA
:1020C0003A200000256620593A2566205A3A2566AE
:1020D0000A0000005265706F7274696E6720656E49
:1020E0006473746F70207374617475730000000002
:1020F000785F6D696E3A2000188122425452494738
:1021000047455245440000006F70656E00000000B6
:10211000795F6D696E3A2000240124427A5F6D690F
:102120006E3A200040060020B0000020B4000020DD
:10213000AC000020C4000020A8000020B80000204F
:10214000BC000020EC010020140000205320FEF70A
:10215000FDFC30B1FEF7E4FC0D900BF083FEFE4970
:1021600008602FE24FF47A700D905020FEF7EEFCDD
:1021700028B1FEF7D5FC0C900BF074FE0D900120F9
:10218000F64908600D9880B20C9004F021FD002003
:10219000F349C1F8900115E25020FEF7D7FC18B1C1
:1021A000FEF7BEFCEF4908604920FEF7CFFC30B1D6
:1021B000FEF7B6FC0D9004F05DF9EB490860442091
:1021C000FEF7C4FC30B1FEF7ABFC0D9004F072F9E1
:1021D000E649086003F0FEFCE5A007F0EBF8E348F1
:1021E000006804F077F907900BF0ACFCCDE90C0126
:1021F000DD48006804F04EF907900BF0A3FCCDE930
:102200000A01D84800680BF09DFCCDE90801DDE922
:102210000C01CDE90201DDE90A01CDE90001D5A0FB
:10222000DDE9082307F0C6F8AFF25C1007F0C2F84A
:10223000C8E1C7E1012002F0C3FBC3E1D1480D9022
:1022400000200C9005200B904520FEF77FFC28B164
:10225000FEF766FC0A900BF005FE0C900C98002827
:1022600001DAC9480D905320FEF770FC10B1FEF75B
:1022700057FC0D904320FEF769FC28B1FEF750FC97
:102280000A900BF0EFFD0B90DDE90B210D9803F0A8
:1022900068FA97E102F0DAFF94E1FDF7FBFF91E1C4
:1022A000FEF7FCFA8EE1FEF79AF98BE1FEF765F88E
:1022B00088E100200E9017E0B4490E98085C0D905C
:1022C000FEF744FC60B1FEF72BFC0C900BF0E6FD32
:1022D000C0B20D900E98C0B20C900D9902F0FEFFA6
:1022E0000E98401C40B20E900E980428E4DB422069
:1022F000FEF72CFC50B1FEF713FC0C900BF0CEFD5A
:10230000C0B201460D90042002F0E8FF5320FEF712
:102310001DFCB0B100200E9010E0FEF701FC0C9007
:102320000BF0BCFDC0B20D900E98C0B20C900D9990
:1023300002F0D4FF0E98401C40B20E900E98042874
:10234000EBDD3FE15020FEF701FC30B1FEF7E8FB8A
:102350000B900BF0A3FDC0B20D905320FEF7F6FBDF
:1023600030B1FEF7DDFB0B900BF098FDC0B20C9086
:10237000DDE90C1002F0B2FF24E15320FEF7E6FB8A
:10238000B0B100200E9010E0FEF7CAFB0C900BF0ED
:1023900085FDC0B20D900E98C0B20C900D9902F060
:1023A000BBFF0E98401C40B20E900E980428EBDD47
:1023B00000200E9017E075490E98085C0D90FEF70E
:1023C000C5FB60B1FEF7ACFB0C900BF067FDC0B233
:1023D0000D900E98C0B20C900D9902F09DFF0E98D2
:1023E000401C40B20E900E980428E4DB4220FEF719
:1023F000ADFB50B1FEF794FB0C900BF04FFDC0B25B
:1024000001460D90042002F087FF03F032F8D9E076
:102410005320FEF79BFBE8B3FEF782FB0D900BF019
:1024200021FD012804D0022838D0032835D169E0E5
:1024300000200E901AE055490E98085C0D90FEF7AA
:1024400085FB78B1FEF76CFB0C900BF00BFD40B2F6
:102450000D900E98C0B24FF0FF331A460C900D99B4
:1024600002F059FF0E98401C40B20E900E980428BE
:10247000E1DB4220FEF76AFB78B1FEF751FB0C90DE
:102480000BF0F0FC40B24FF0FF331A4601460D90BE
:10249000042000E089E002F03EFF85E000200E907D
:1024A0001AE03A490E98085C0D90FEF74FFB78B1A0
:1024B000FEF736FB0C900BF0D5FC40B20D900E9859
:1024C000C0B24FF0FF330C9019460D9A02F023FF73
:1024D0000E98401C40B20E900E980428E1DB42207A
:1024E000FEF734FB68B1FEF71BFB0C900BF0BAFC57
:1024F00040B24FF0FF33024619460D90042002F01F
:102500000AFF51E000200E901AE020490E98085C66
:102510000D90FEF71BFB78B1FEF702FB0C900BF061
:10252000A1FC40B20D900E98C0B20C904FF0FF325B
:1025300011460D9B02F0EFFE0E98401C40B20E902B
:102540000E980428E1DB4220FEF700FB18B1FEF7ED
:10255000E7FA0C901CE026E01C00002090012342CA
:102560000000234244010020480100204C010020CB
:102570006F6B000020703A256620693A256620645A
:102580003A2566000000164300008C42DBE3000899
:102590000BF068FC40B203464FF0FF3211460D903D
:1025A000042002F0B8FE00BF00BF02F062FF09E0A5
:1025B0000020FA490870FA480068FA490860FEF7F6
:1025C000D8FA00BF5AE05420FEF7C0FAE8B3FEF78D
:1025D000A7FA0D900BF062FCF349087008460078EA
:1025E00001280BDBF14806F0E5FEEF480178F0A08A
:1025F00006F0E0FEEFA006F0DDFE3FE000200D90CB
:102600004620FEF7A3FAA0B101200D90FEF788FA4C
:10261000ED490860084600680BF094FA0022134662
:10262000CDE90A010BF07CF803D2E7480068E749DE
:102630000860DE4806F0BEFEE5A006F0BBFEE948F5
:102640000178E9A006F0B6FE00E004E0AFF28050A9
:1026500006F0B0FE12E0D54806F0ACFEE3A006F0AE
:10266000A9FEE748E749096800EBC11001460D9053
:10267000E5A006F09FFEE5A006F09CFEFEF744FAFA
:1026800000BFFEF7DBBD2DE9F0417DE204F042FC26
:10269000DF490870084600780A280ED008460078FE
:1026A0000D280AD0084600783A2802D1D948007887
:1026B00018B1D94800687F2871DBD748006820B975
:1026C0000020D4490870BDE8F0810020CC49D34AED
:1026D000126801EBC211D04A12688854CD480078C4
:1026E00000287DD1CB490870CD49CC4A1268885466
:1026F000C349CA4A126801EBC2104E2106F0B4FF6A
:1027000000286ED0BE49C54A126801EBC2104E21A6
:1027100006F0AAFFC3490860B949C04A126801EB34
:10272000C212BE4B1B6801EBC311BE4B1B68591A8A
:10273000491C50180A22002106F05EFFBA490860C1
:102740000846016897480068401C81421AD0AC498D
:10275000B24A126801EBC210B4A106F08FFF88B92B
:1027600092482C3006F026FEB2A006F023FE8D48DB
:102770000168BDA006F01EFEFEF7FBF90020A64989
:102780000860A0E79E49A54A126801EBC2102A2101
:1027900006F06AFF002878D0002500240AE0DBE17B
:1027A00097489E49096800EBC1122046611CCCB2D3
:1027B000105C454092489949096800EBC110005DE2
:1027C0002A28EDD18E49954A126801EBC2102A21C0
:1027D00006F04AFF934908608949904A126801E06F
:1027E000B6E181E001EBC2128C4B1B6801EBC31117
:1027F0008C4B1B68591A491C501800210AF012FB17
:1028000006460AF0FBFDC0B2A84255D067482C30FE
:1028100006F0D0FD95A006F0CDFD29469BA006F060
:10282000C9FD00249DA006F0C5FD0BE074487B4A5D
:10283000126800EBC2132046621CD4B2195C98A047
:1028400006F0B8FD6E487549096800EBC110005DDF
:102850002A28EBD193A006F0ADFD0025002418E056
:1028600067486E4A126800EBC210015D8FA006F047
:10287000A1FD63486949096800EBC1122046611C4B
:10288000CCB2105C4540294600E016E08BA006F073
:1028900091FD5B486149096800EBC110005D2A2881
:1028A000DED14048016870A006F084FDFEF761F9B2
:1028B00000205949086006E711E03C482C3006F03A
:1028C00079FD82A006F076FD3648016866A006F024
:1028D00071FDFEF74EF900204F490860F3E65248BB
:1028E00000683049086018E045494C4A126801EB1D
:1028F000C2102A2106F0B8FE78B12C482C3006F020
:1029000059FD7DA006F056FD2648016856A006F048
:1029100051FD002040490860D5E639493F4A126818
:1029200001EBC210472106F09FFEA0B334493B4A99
:10293000126801EBC210472106F096FE3949086083
:102940002F49364A126801EBC212344B1B6801EB67
:10295000C311344B1B68591A491C501800210AF046
:1029600061FA04460AF01AFD30B1012805D00228A8
:1029700004D0032811D102E000BF00BF00BF074808
:10298000007848B9AFF2184006F014FDAFF6C00069
:1029900006F010FDC9E0CBE0C4E0C7E0A5000020D0
:1029A0006400002060000020A4000020140E000835
:1029B00054256400496E76616C6964206578747290
:1029C0007564657200000000540000205000002073
:1029D0004163746976652045787472756465723AEE
:1029E000200000004400002025640000556E6B6E3E
:1029F0006F776E20636F6D6D616E643A2022000008
:102A00002002002074000020257300002200000036
:102A10008000002088000020840000207800002032
:102A2000690000208C0000205C0000204D31313016
:102A3000000000004C696E65204E756D6265722065
:102A40006973206E6F74204C617374204C696E65DD
:102A5000204E756D6265722B312C204C6173742091
:102A60004C696E653A200000256C640063686563FC
:102A70006B73756D206D69736D617463682C204C88
:102A8000617374204C696E653A20000020636865AC
:102A9000636B73756D3A2025640A0D0020270000D2
:102AA0002563000020270A0D20000000636D64628A
:102AB00075666665723A25643B00000020636865B0
:102AC000636B73756D3A2564200A0D004E6F2043C9
:102AD0006865636B73756D2077697468206C696EC7
:102AE00065206E756D6265722C204C617374204C8C
:102AF000696E653A200000004E6F204C696E6520BB
:102B00004E756D62657220776974682063686563CD
:102B10006B73756D2C204C617374204C696E653A33
:102B2000200000003C4806F045FC00E000BF00BF6C
:102B30003A490968481CC11700EB5171C910A0EB54
:102B4000C101364A116036480068401C34490860AB
:102B500000203449086017E0334800783B2802D150
:102B60000120324908703148007868B92E48017850
:102B70002F482A4A126800EBC2132A4802680068EC
:102B8000401C284C2060995404F0BAF920B1244824
:102B900000680828FFF67AAD00BF94E524E02048DD
:102BA0000068072801DAFFF76EFD1D480068A8B12C
:102BB000FEF71AFB1A48006800280FDD1848006865
:102BC000401E174908601B490968481CC11700EBE3
:102BD0005171C910A0EBC101164A116003F012F83F
:102BE000FDF765FF01F052FFD9E710B502F09AFD3D
:102BF0001148007860B901200F4908700F4800683B
:102C00000F4908600F4806F0D5FB034806F0D2FBD9
:102C100010BD09480078704708E9000878000020D6
:102C20007C0000208400002080000020880000201C
:102C30002002002074000020A50000206000002079
:102C400064000020400E00080FB5A3B0DDE92501A7
:102C500050F821000990239850F821000890099914
:102C60000AF09CFF22902599289851F8200009909D
:102C70002899239850F82100089009990AF08EFFAE
:102C800021902399299851F8200009902999249896
:102C900050F82100089009990BF07EFA20902398B3
:102CA000C06809902498C068089009990BF074FADC
:102CB0001F90DDE9250150F8210080F000401E90B2
:102CC0002899259850F8210080F000401D90269901
:102CD000249850F82100099022990BF05DFA1C907D
:102CE0002899249850F82100099021990BF054FA62
:102CF0001B901B991D980BF051F902901C991E987E
:102D00000BF04CF9019002990AF048FF03900AF089
:102D100019FFCDE90601DDE91C100BF03FF9029027
:102D20001B991E980BF03AF9019002990BF034FAB6
:102D300003900AF007FFCDE90401DDE9062308F05E
:102D400077FFCDE908010AF0A7F81A9000211A9838
:102D50000BF0F0F80DD21A980AF0F4FEBB4ABC4B07
:102D6000CDE906010AF0CAF8CDE908010AF094F8A5
:102D70001A902C9868B11A980AF0E4FEB34AB44B42
:102D8000CDE906010AF0F4FDCDE908010AF084F866
:102D90001A9020980AF0D6FE21F00041CDE90601F4
:102DA0002B991A980BF0FAF803900AF0CBFECDE9B4
:102DB0000401DDE9062309F051F9CDE908010AF023
:102DC0006BF8199019980AF0BDFEA24AA24BCDE902
:102DD00008010AF06BFB01D227B000BD4FF07E5115
:102DE00019980AF049FF05900AF0ACFECDE90601FA
:102DF00009F09AF8CDE908010AF000FB80B21890BA
:102E0000189808B90120189018980BF07FF801461F
:102E100009901A980AF030FF179018980BF076F87E
:102E20000146099020980AF027FF169018980BF099
:102E30006DF8014609901F980AF01EFF159017982B
:102E40000AF080FECDE9040117980AF07BFE00220B
:102E5000824BCDE900010AF065FBCDE90201DDE915
:102E600004230AF05FFB00227D4BCDE906010AF046
:102E70008DFCCDE908010AF00FF814901798139013
:102E800000200A902999239850F821100FAA299818
:102E900042F820102398C068129001200B90B9E0EE
:102EA0000A98192822DA14991D980BF077F80990DE
:102EB00013991E980BF072F8089009990AF06EFEAB
:102EC0000C9013991D980BF069F8099014991E98AD
:102ED0000BF064F8089009990BF05EF91E900C98BD
:102EE0001D900A98401C40B20A9057E00B980BF0D6
:102EF0000DF8049017990BF051F805900AF022FE96
:102F0000CDE9060108F0C2FFCDE9080109F0C4FFD0
:102F10000D900B980AF0FAFF049017990BF03EF809
:102F200005900AF00FFECDE9060109F005FFCDE995
:102F3000080109F0B1FF0E902899259850F821005A
:102F400007900E990BF02AF80990DDE9250150F859
:102F5000210080F0004007900D990BF01FF80890B9
:102F600009990AF01BFE1E902899259850F8210017
:102F700007900D990BF012F80990DDE9250150F842
:102F8000210080F0004007900E990BF007F80890A0
:102F900009990BF001F91D9000200A901E992298C2
:102FA0000AF0FCFD01460FAA269842F820101D9950
:102FB00021980AF0F3FD01460FAA289842F8201044
:102FC0000FA9299851F82000099016990AF0E6FDFA
:102FD00001460FAA299842F82010129809901599D5
:102FE0000AF0DCFD12900FA8FEF769F82D992A98D7
:102FF000CDE9000112980990119808901098079057
:103000000F98069007A90EC900F0C5FB0B98401C4D
:1030100080B20B900B9918988142FFF641AF2D9921
:103020002A98CDE900012498C06809902498806806
:10303000089024984068079024980068069007A993
:103040000EC900F0A8FB00BFC6E60000182D4454CE
:10305000FB211940FCA9F1D24D62503F0000E03F36
:103060000000F03F411C48B2202800D100207047EA
:1030700000B92020411E48B270472DE9FF5F044689
:1030800089469246002150460AF0B8FE26D05046A6
:103090000AF058FD074600224FF080430AF042FA3A
:1030A000CDE90201214620460AF078FF80464946D4
:1030B00048460AF073FF834641460BF06DF8074619
:1030C0000AF040FDCDE90001DDE9022309F0D2FF5D
:1030D000054609F0E1FE04B0BDE8F09F0020FAE7E4
:1030E0002DE9F04F91B004460D4616469946002151
:1030F00030460AF083FE48D030460AF023FD0746EA
:103100000022F64B0AF00EFACDE90C0129462846BA
:103110000AF044FF07460AF015FDCDE908012146F3
:1031200020460AF03BFF07460AF00CFDCDE90401FA
:1031300048460AF007FD82468B4630460AF002FDFB
:10314000074600224FF080430AF0ECF952465B46F6
:10315000CDE900010AF0E6F9CDE90201DDE9042339
:103160000AF006FCCDE90601DDE9082309F0C6FEF8
:10317000CDE90A01DDE90C2309F07CFFCDE90E0160
:1031800009F08AFE11B0BDE8F08F0020FAE72DE9C2
:10319000F74F8AB004461646E06B0AF0B7FE04907B
:1031A0000B990AF0FBFE05900AF0CCFC074608F0EC
:1031B000FFFDCDE906010AF021F98146E06B0AF036
:1031C000A5FE314604900AF0E9FE05900AF0BAFC2B
:1031D000074608F0EDFDCDE906010AF00FF9824639
:1031E000A06C099009980AF091FE0490E06B0AF037
:1031F0008DFE0390206C0AF089FE0290DDE9031237
:10320000FFF73BFF05900AF09DFCCDE9060108F0B1
:10321000CFFD07460AF0C2F8054609980AF076FE87
:1032200080F000400490606C0AF070FE0390E06B48
:103230000AF06CFE0290DDE90312FFF71EFF059015
:103240000AF080FC074608F06FFECDE906010AF09F
:10325000A5F808902069411B0898A1EB000BB9F173
:10326000780F01D24FF07809BAF1780F01D24FF000
:10327000780ABBF1000F2DDA20690AF047FE0490AE
:1032800009980AF043FE0390606C0AF03FFE02903A
:10329000206C0AF03BFE019002A90EC9FFF720FF47
:1032A00005900AF04FFCCDE9060108F081FD0746C4
:1032B0000AF074F80546002D01DD284600E00020E4
:1032C00005462069A84201D9284600E02069054644
:1032D0004FF0000B72B694F8500038B9656105EBF9
:1032E0000B00A061C4F84090C4F844A062B60DB0D1
:1032F000BDE8F08F2DE9FE4F82460C4691464FF017
:10330000804150460AF04AFE494600900AF046FEC7
:103310002146029020460AF041FE019002990AF0EF
:103320003BFF83460AF00EFC074609F055FD0546B3
:1033300009F0B2FDBDE8FE8F2DE9F04180460C4654
:1033400015460CB9BDE8F08155B3D4E90A010AF07D
:1033500055FD25D094F83900E8B9A96AE06A0AF069
:10336000E9FE18D2606B80F00047226B3846A96AEC
:10337000FFF7C0FF0646E16A0AF0DCFE01D2E06A10
:1033800007E0606B80F00046226B3046A96AFFF7C9
:10339000B1FFA06201E0E06AA062012084F8380079
:1033A00000BFCFE73EB54E4804784E48057872B668
:1033B00062B64B480078401B00F01F00032820DD58
:1033C000002000900190029045480078C01E00F057
:1033D0001F0413E060B2FFF74BFEC4B201980290E5
:1033E00000980190C4EBC40000EB40003E4901EBA3
:1033F000800000909DE80700FFF79EFFAC42E9D1F6
:1034000000BF3EBD2DE9F05F0446894692460CB9E7
:10341000BDE8F09F94F83900002837D1D9F828107A
:10342000A06A0AF087FD31D2606B80F0004B5846ED
:10343000226BA16AFFF75EFF8046D9F828100AF0D8
:1034400079FE02D2D9F8280007E0606B80F00048CE
:103450004046226BA16AFFF74DFF07460AF072FB58
:1034600005460E46D9F828000AF06CFB07462A46A6
:10347000334609F057FF08D02846314609F00CFDC5
:10348000C9F82800012089F8380000BF00BFBFE755
:103490003EB514480478002000900190029013E09B
:1034A0000198009002980190C4EBC40000EB40002A
:1034B0000D4901EB800002909DE80700FFF7A2FF95
:1034C00060B2FFF7CFFDC4B2054800788442E7D16F
:1034D0000022DDE90101FFF795FF3EBD000010402D
:1034E000D9000020DA000020800600202DE9F84FE6
:1034F000F84800784FFA80FA002427E0A146CAEB8A
:10350000CA0000EB4000F44901EB8004B9F1000F60
:1035100018D099F8380010B994F8380090B1D9F85B
:103520002410A06A0AF0A8FB0546D9E909100AF0A0
:10353000A3FB06462A4631464846FFF728FE0020F0
:1035400089F838005046FFF78DFD8246E348007841
:103550008245D3D1D4B1606A0AF0F4FA07463A46FC
:103560000B46DF48DF4909F085FD054609F094FC6C
:103570008346D4E909100AF07FFB5A4601460090C1
:103580002046FFF704FE002084F83800BDE8F88FDD
:1035900010B5FFF707FFFFF77BFFFFF7A7FF10BD91
:1035A0000020CE490870CB490870CF480021016047
:1035B00041608160C1600020CC490860486088603B
:1035C000C860CB49086070472DE9FF5FC9480078A3
:1035D00008B9BDE8FF9F002002F094FF80464FF03D
:1035E00080410AF0DBFA0746C348016838460AF012
:1035F000A1FC00D2EDE70026B648047847E0C4EB12
:10360000C40000EB4000B44951F8200078B9C4EB85
:10361000C40000EB400001EB8000406838B9C4EB07
:10362000C40000EB400001EB8000806860B3C4EB95
:10363000C40101EB4101A84A02EB810108690AF0CB
:1036400065FC8246C4EBC40101EB4101A24A02EBD6
:103650008101C8680AF042FC834651460AF00CFB1F
:103660008046C4EBC40000EB40009B4A02EB8000A4
:10367000416A40460AF092FC0746314638460AF055
:1036800059FD00D23E4600BF601C00F01F04934865
:1036900000788442B3D19948016830460AF07EFC34
:1036A00007469548016838460AF078FA81464D4643
:1036B0009148016828460AF03DFC01D28E48056811
:1036C0008F48016828460AF035FD01D28C4805680C
:1036D00029468C4800680AF02DFD1CD228460AF0C5
:1036E00031FA0746884A894B09F01CFFCDE90001F1
:1036F000844800680AF026FA0746854A854B09F097
:1037000011FF8246DDE9002309F0F8FBCDE9020153
:1037100009F0C2FB05467B4805600021284601F000
:10372000E0FF00BF55E72DE9F04100250026002706
:10373000A8466848007869490978884223D06549D5
:1037400008781BE0C0EBC00101EB4101624A02EBCB
:103750008104216809B1691CCDB2616809B1711C8D
:10376000CEB2A16809B1791CCFB2E16819B108F1F4
:10377000010101F0FF08411C01F01F0057490978C1
:103780008842DFD100BF00BF00BF00BF00BFFFF70E
:103790001BFFBDE8F0811FB5AAB05048007840B2C9
:1037A000FFF760FC299003E002F02CFAFDF77FF9A7
:1037B0004848017829988142F6D057480068014668
:1037C0000E902A980AF0EAFB00210F900AF0B2FC52
:1037D00014D85148006801460A902A980AF0DEFB86
:1037E0000B900AF0AFF900224C4BCDE90C0109F027
:1037F00085FBCDE90E0109F0D1FD13E046480068D4
:1038000001460A902A980AF0C9FB0B900AF09AF92F
:103810000022424BCDE90C010AF0AAF8CDE90E01D5
:1038200009F0BCFD25903C48406801460E902B985D
:103830000AF0B4FB00210F900AF07CFC14D8364843
:10384000406801460A902B980AF0A8FB0B900AF0FA
:1038500079F90022314BCDE90C0109F04FFBCDE99C
:103860000E0109F09BFD13E02B48406801460A90C9
:103870002B980AF093FB0B900AF064F90022274B77
:10388000CDE90C010AF074F8CDE90E0109F086FDCE
:1038900026902148806801460E902C980AF07EFB05
:1038A00000210F900AF046FC3AD81B488068014678
:1038B0000A902C980AF072FB0B900AF043F9002250
:1038C000164BCDE90C0109F019FBCDE90E0109F009
:1038D00065FD39E0DA00002080060020D9000020D4
:1038E0009A9999999999A93F60060020700600203D
:1038F000C8000020D8000020D0000020D400002004
:10390000CC000020E00000208014AE47E17A943F14
:103910005C8FC2F5285CEF3F300600200000E03FDE
:10392000FE48806801460A902C980AF037FB0B90FD
:103930000AF008F90022FA4BCDE90C010AF018F858
:10394000CDE90E0109F02AFD2790F448C068014630
:103950000E902D980AF022FB00210F900AF0EAFB4E
:1039600014D8EE48C06801460A902D980AF016FB5C
:103970000B900AF0E7F80022E94BCDE90C0109F0C1
:10398000BDFACDE90E0109F009FD13E0E348C06876
:1039900001460A902D980AF001FB0B900AF0D2F82C
:1039A0000022DF4BCDE90C0109F0E2FFCDE90E0169
:1039B00009F0F4FC2890DB492898C968884237D080
:1039C000D948007802F096FDD8490F900AF0B2FA73
:1039D0000BD2D748007840B9D2492898C860D5A002
:1039E00005F0E8FCD5A005F0E5FCCC48C068DA4954
:1039F0000C900AF0D3FA0E90CA492898C968401A68
:103A00000F90002801DB0F9801E00F9840420C90C6
:103A10000AF064FA0D900E990AF08CFB08D2C149A5
:103A20002898C860C3A005F0C5FCCCA005F0C2FC76
:103A3000D2480078C0EBC00000EB4000D04901EB59
:103A4000800024900021249880F85010B5492598D2
:103A50000968401A0F90002801DB0F9801E00F98C9
:103A6000404224990860AF4926984968401A0F904F
:103A7000002801DB0F9801E00F984042249948602C
:103A8000A84927988968401A0F90002801DB0F98F1
:103A900001E00F98404224998860A2492898C9689B
:103AA000401A0F90002801DB0F9801E00F98404268
:103AB0002499C8602498C068B24909684843249989
:103AC000C8602498C068642190FBF1F12498C1601B
:103AD0002498D0E90210814202DD2498806801E038
:103AE0002498C06824994968884202DA249840687A
:103AF00009E02498D0E90210814202DD2498806810
:103B000001E02498C06824990968884202DA249860
:103B100000681AE02498D0E90210814202DD24985E
:103B2000806801E02498C06824994968884202DAD4
:103B30002498406809E02498D0E90210814202DD0F
:103B40002498806801E02498C0682499086124982A
:103B50000069052801D82EB010BD8B480168249853
:103B6000C1640021249880F820106E4925980968C6
:103B7000884207DA249890F8200040F00101249848
:103B800080F82010674926984968884207DA249807
:103B900090F8200040F00201249880F8201061493C
:103BA00027988968884207DA249890F8200040F026
:103BB0000401249880F820105A492898C96888423E
:103BC00007DA249890F8200040F00801249880F843
:103BD00020102499319881F821002498006810B1B0
:103BE00000206A4908602498406810B100206849A4
:103BF00008602498806818B1002065490C3108607D
:103C00002498C06828B10020624908606249C1F860
:103C1000BC012498C06848B96048016830980AF02F
:103C200089F90CD25D480068309008E05C48016872
:103C300030980AF07FF902D259480068309039492B
:103C400025980968401A0E900AF048F90F903348F9
:103C5000006801460E900F980AF00EF82090314946
:103C600026984968401A0E900AF038F90F902B48B0
:103C7000406801460E900F9809F0FEFF21902949F7
:103C800027988968401A0E900AF028F90F90234867
:103C9000806801460E900F9809F0EEFF2290394897
:103CA00000680AF01BF90A901E482899C068081A93
:103CB00007900AF013F908901848C0680146079069
:103CC000089809F0D9FF09900A990AF067F90B9052
:103CD00009F038FF0022334BCDE90C0109F0CAF995
:103CE000CDE90E0109F0D8F8239024980068052842
:103CF0005ADC24984068052856DC249880680528FA
:103D000052DC23980D9009F01DFF21F00041CDE910
:103D10000E0109F0C1F8249908636EE03006002016
:103D20000000E03F600600204400002000002A431D
:103D3000DB0000206563686F3A00000020636F6C51
:103D40006420657874727573696F6E207072657621
:103D5000656E7465640000000000824320746F6F1C
:103D6000206C6F6E6720657874727573696F6E2052
:103D700070726576656E746564000000D90000207D
:103D8000800600201C00002048000020B481224250
:103D9000900124429C01224200002142C4000020E4
:103DA000AC0000200000594022980890014607907E
:103DB0000AF0F4F80A9021980690014605900AF05E
:103DC000EDF8089020980690014605900AF0E6F874
:103DD0000790089909F0E2FE09900A9909F0DEFEC1
:103DE0000B9009F0AFFECDE90C0108F0F5FFCDE92D
:103DF0000E0109F051F8249908632498006B0B9088
:103E000009F0A0FE02460B46CDE90C010020FE4958
:103E100009F030F9CDE90E0109F03EF81F901F9925
:103E200030980AF0BBF81E90F8480078F8490978F5
:103E3000401A00F01F001D901E9809F083FE0246F4
:103E40000B46CDE90C010020F24909F013F90022DC
:103E50001346CDE90E0109F063FC15D81E9809F050
:103E600071FE02460B46CDE90A010020E94909F03E
:103E700001F90022E84BCDE90C0109F03FF8CDE94A
:103E80000E0109F08BFA14E01E9809F05BFE024661
:103E90000B46CDE90A010020DE4909F0EBF80022CB
:103EA000DD4BCDE90C0109F063FDCDE90E0109F010
:103EB00075FA11901D9801287CDD1D9809F0CBFA48
:103EC0000022D64BCDE90E0109F0F0FA72D2D449A6
:103ED0001198096888426DD21D9809F0FFFF09907A
:103EE000CF4801681198081A06900AF00FF84FF0B1
:103EF000804107900AF052F80890099909F0BCFE39
:103F000000210A900AF016F921D81D9809F0E6FF61
:103F10000490C34801681198081A019009F0F6FF4F
:103F20004FF0804102900AF039F80390049909F0AB
:103F3000A3FE059009F006FE0022B74BCDE906016D
:103F400008F0DCFFCDE9080109F028FA20E01D980F
:103F500009F0C4FF0490B24801681198081A019052
:103F600009F0D4FF4FF0804102900AF017F8039057
:103F7000049909F081FE059009F0E4FD0022A64BAA
:103F8000CDE9060109F0F4FCCDE9080109F006FAD3
:103F9000119908440B9009F075FA02460B46CDE9D9
:103FA0000C0100209B4909F065F8CDE90E0108F0ED
:103FB00073FF1E902498006B0F901E9909F0EEFF7E
:103FC0002499486224980069099009F09FFF0A909B
:103FD0001E9909F0E3FF0B9009F0B4FDCDE90C0147
:103FE00007F0E6FECDE90E0109F008FA0146249833
:103FF000C1634FF07E501890002017906CE020A90C
:10400000179851F820000F901E9909F0C7FF19AAC0
:10401000179942F821008349179851F820000B9016
:1040200009F090FDCDE90E0119A9179851F820006B
:104030000B9009F087FD21F00041CDE90C01DDE98D
:104040000E2309F06DFB44D219A9179851F82000EE
:10405000059009F077FD21F00041CDE90801714993
:10406000179851F82000059009F06CFDCDE9060184
:10407000DDE9082308F0FEFFCDE90C01189809F0EE
:1040800061FDCDE90A01DDE90C2309F00FFA03D245
:10409000189809F057FD17E019A9179851F8200052
:1040A000099009F04FFD21F00041CDE90C015D4977
:1040B000179851F82000099009F044FDCDE90A0154
:1040C000DDE90C2308F0D6FFCDE90E0108F0E4FE8F
:1040D00018901798401C1790179804288FDB189891
:1040E00009F030FD0022484BCDE90E0109F0DEF960
:1040F0002AD2002017900EE019A9179851F8200035
:104100000F90189909F04AFF19AA179942F821004F
:104110001798401C179017980428EDDB2498406AE4
:104120000F90189909F03AFF249948622498C06BBF
:104130000D9009F0EBFE0E90189909F02FFF0F90EB
:1041400009F0ACFE2499C863249800690E9009F028
:10415000DDFE0F902498006B01460E900F9809F039
:104160008BFD169024980068C8B924984068B0B9AF
:104170002498806898B92C481699006809F00EFFB9
:104180000B9009F0DFFCCDE90C0107F011FECDE941
:104190000E0109F033F9014624988164C9E02348EF
:1041A0001699006809F0FAFE0B9009F0CBFCCDE9F6
:1041B0000C0107F0FDFDCDE90E0109F01FF924996E
:1041C00088641B4800680D9009F0A0FE0F902498A9
:1041D00000690B9009F09AFE0D90249800680990F0
:1041E00009F07CFE0B902498806C099009F08EFEFB
:1041F0000A900B9909F0D2FE0C900D9909F03CFD44
:104200000E900F9916E000000000F03FD90000204A
:10421000DA00002080842E410000E03F00003040A2
:10422000A800002020060020B4000020B0000020DC
:104230005006002009F07EFF03D2FE480168249852
:104240008164FC4840680D9009F060FE0F9024984E
:1042500000690B9009F05AFE0D902498406809906F
:1042600009F03CFE0B902498806C099009F04EFEFA
:104270000A900B9909F092FE0C900D9909F0FCFC44
:104280000E900F9909F056FF03D2EA48416824982E
:104290008164E848C0680D9009F038FE0F902498BA
:1042A00000690B9009F032FE0D902498C0680990C7
:1042B00009F014FE0B902498806C099009F026FEFA
:1042C0000A900B9909F06AFE0C900D9909F0D4FC44
:1042D0000E900F9909F02EFF03D2D648C16824989A
:1042E0008164D44880680D9009F010FE0F902498E6
:1042F00000690B9009F00AFE0D90249880680990DF
:1043000009F0ECFD0B902498806C099009F0FEFDFB
:104310000A900B9909F042FE0C900D9909F0ACFC43
:104320000E900F9909F006FF03D2C24881682498C5
:1043300081642498806C0E9009F0E8FD0F90169926
:1043400009F09AFC0146249841632498806C0A90F5
:1043500009F0DCFD0B9009F0F5FBB74AB74BCDE94E
:104360000C0109F0DFF8CDE90E0109F017F82499E6
:10437000C8614FF08041B248006809F07DFC15909B
:104380004FF07E5014904FF08041AE48006809F025
:1043900073FC0B9009F0D6FBCDE90E011B980B9036
:1043A00009F0D0FB21F00041CDE90C01DDE90E233D
:1043B00009F0B6F913D24FF08041A248006809F025
:1043C0005BFC0F90159909F0B5FE01D2159805E038
:1043D0004FF080419B48006809F04EFC15904FF06B
:1043E00080419948006809F047FC0B9009F0AAFB4E
:1043F000CDE90E011C980B9009F0A4FB21F00041BF
:10440000CDE90C01DDE90E2309F08AF913D24FF052
:1044100080418D48006809F02FFC0F90159909F034
:1044200089FE01D2159805E04FF08041864800686A
:1044300009F022FC15902498406A01460F901598C7
:1044400009F078FD01D2159801E02498406A159092
:10445000159810901D9801287EDD7C48006809F0B1
:1044600071FB7B4A7B4BCDE90E0109F059F973D200
:104470007948406802901A980190029909F08CFEE0
:10448000039009F05FFB00224FF08043CDE9040167
:1044900007F066FFCDE908016F480068029019989F
:1044A0000190029909F078FE039009F04BFB00227D
:1044B0004FF08043CDE9040107F052FFCDE906013A
:1044C000DDE9082308F01AFDCDE90A0108F084FCB3
:1044D000CDE90C0108F0E0FC0F902498406A15909B
:1044E000574801680F9809F025FE05D254480F99E6
:1044F000006809F0C1FB14905248006809F022FBE3
:10450000CDE90C015448806808901B9807900899E1
:1045100009F042FE099009F015FB21F00041CDE9B8
:104520000A01DDE90C2309F0FBF848D24A4880680B
:1045300002901B980190029909F02EFE039009F059
:1045400001FB21F00041CDE906013E48006809F079
:10455000F9FACDE9040100E0BBE0DDE9062308F04B
:1045600089FDCDE90A01149809F0ECFACDE90801BA
:10457000DDE90A2308F09AFF03D2149809F0E2FA61
:1045800018E03548806806901B980590069909F058
:1045900003FE079009F0D6FA21F00041CDE90A01A7
:1045A0002848006809F0CEFACDE90801DDE90A23C0
:1045B00008F060FDCDE90C0108F06EFC1490224873
:1045C000006809F0BFFACDE90C012348C0680890E3
:1045D0001C980790089909F0DFFD099009F0B2FADC
:1045E00021F00041CDE90A01DDE90C2309F098F83A
:1045F0005BD21948C06802901C980190029909F09A
:10460000CBFD039009F09EFA21F00041CDE90601AF
:104610000D48006809F096FACDE90401DDE90623AA
:1046200008F028FDCDE90A01149809F08BFACDE9CC
:10463000080113E0500600208DEDB5A0F7C620401C
:10464000B8000020BC000020C0000020C8000020EE
:104650002D431CEBE2361A3F70060020DDE90A23E9
:1046600008F024FF03D2149809F06CFA18E0F94816
:10467000C06806901C980590069909F08DFD07907A
:1046800009F060FA21F00041CDE90A01F248006822
:1046900009F058FACDE90801DDE90A2308F0EAFC3F
:1046A000CDE90C0108F0F8FB1490DDE9141009F0D5
:1046B00075FC0E90E94801680E9809F03BFD02D2A6
:1046C000E648006803E0DDE9141009F067FC159086
:1046D00000BF24991598C8622498406B80F0004070
:1046E0000E902498006B0246DD490D900E98FEF75F
:1046F00001FE0F9009F026FACDE91201159809F094
:1047000021FACDE90C01DDE9122308F0CFFE03D236
:10471000159809F017FA01E0DDE91201CDE90E0163
:1047200008F0BAFB249988622498406A0D9009F039
:1047300009FACDE90E01DDE9122308F0B7FE04D82D
:104740000121249880F8391003E00021249880F892
:1047500039100121249880F83810BE4819A91EC9C3
:104760001EC02498406ABD4908602498406A0146EA
:104770000D90109809F080FA0F902498406A0D90DF
:104780002498806A0C900D9909F076FA0E900146F3
:104790000F9A2498FEF7FBFCB24929980870B2489A
:1047A00025A91EC91EC0FEF7F3FE00BFFFF7D3B94F
:1047B0002DE9F84F83460C4691469A46AB4801686E
:1047C000584609F0EBFB0546002109F0B3FC10D870
:1047D000A6480168584609F0E1FB009009F0B2F9DB
:1047E00007460022A24B08F089FB054608F0D6FDDB
:1047F0000FE09E480168584609F0D0FB009009F090
:10480000A1F9074600229A4B09F0B2F8054608F0D4
:10481000C5FD9549086095484168204609F0BEFBF2
:104820000546002109F086FC10D8904841682046D2
:1048300009F0B4FB009009F085F9074600228C4B83
:1048400008F05CFB054608F0A9FD0FE087484168C9
:10485000204609F0A3FB009009F074F905460022F8
:10486000834B09F085F8074608F098FD7E494860BB
:104870007E488168484609F091FB0546002109F011
:1048800059FC10D879488168484609F087FB0090A8
:1048900009F058F907460022754B08F02FFB054632
:1048A00008F07CFD0FE071488168484609F076FB0E
:1048B000009009F047F9054600226D4B09F058F8C1
:1048C000074608F06BFD684988606848C168504633
:1048D00009F064FB0546002109F02CFC10D8634860
:1048E000C168504609F05AFB009009F02BF90546C3
:1048F00000225F4B08F002FB074608F04FFD0FE077
:104900005A48C168504609F049FB009009F01AF96D
:1049100005460022564B09F02BF8074608F03EFDED
:104920005149C8600D46EB68AA686968286800F0BC
:1049300098FC002049490860464908604860886042
:10494000C860BDE8F88F2DE9F04704464748C168C4
:10495000204609F023FB0546002109F0EBFB10D8A7
:104960004248C168204609F019FB814609F0EAF87F
:10497000074600223E4B08F0C1FA054608F00EFD3E
:104980000FE03A48C168204609F008FB814609F06B
:10499000D9F807460022364B08F0EAFF054608F032
:1049A000FDFC3149C860C86800F064FCBDE8F087D0
:1049B0002C4800782F490978401A00F01F007047F2
:1049C0002D490870704770B5002413E02B4951F849
:1049D000240009F09BFA0646244850F8241030467B
:1049E00009F0DCFA054609F059FA254941F8240096
:1049F000601C44B2042CE9DB70BD1A4800781D49E4
:104A00000978884206D01B480078401C00F01F003F
:104A10001849087070471348007816490978884289
:104A200001D10020704713490978C1EBC10101EBA6
:104A30004101144A02EB8100012180F8501000BFAF
:104A4000F0E7084800780B49097888421CD100201B
:104A50007047000070060020C0000020C800002041
:104A6000CDCC4C3DD900002060060020300600204F
:104A70000000E03FDA000020DB00002040060020BC
:104A80005006002080060020012070472DE9F041EB
:104A9000FE48007830B9FE48007818B9FD48007823
:104AA000002851D0FCA004F085FCFDA004F082FC9D
:104AB000F648007890B1FE49086809F00FFA0746F9
:104AC000FC480168384609F0D7F8044609F03AF87E
:104AD00005462A460B46F8A004F06CFCEC4800782A
:104AE00090B1F349486809F0F9F90746F14841687F
:104AF000384609F0C1F8044609F024F805462A466C
:104B00000B46EFA004F056FCE248007890B1E8496B
:104B1000886809F0E3F90746E6488168384609F0F5
:104B2000ABF8044609F00EF805462A460B46E6A007
:104B300004F040FCE6A004F03DFC0020D3490870DE
:104B4000D3490870D3490870BDE8F0810020CF49EF
:104B50000870CF490870CF4908707047DD49087068
:104B6000704710B501221146DB4803F096FC10BDDA
:104B7000002001E0411CC8B20628FBDB704770B57D
:104B8000044649F64040844200DD044644F6206075
:104B9000844204DDA4080420D04908700BE042F2EE
:104BA0001070844204DD64080220CC49087002E0E1
:104BB0000120CA490870202C00DA2024C84890FB44
:104BC000F4F0401E85B2642D07DA6425C5A004F018
:104BD000F1FB2146C8A004F0EDFB284670BD10B5DE
:104BE0000020C6490860C6490968898F88B2FFF766
:104BF000C6FFC4490880C2480068B0F84000C249F6
:104C0000088008460088FFF7BAFFC04908600846D8
:104C10000088401E81B2B04803F0BAFE10BD70B5E6
:104C20000121AD4803F0E7FE00287DD00121AA480C
:104C300003F0F2FEB248006810BBFFF7ECFEB0498B
:104C4000086008460068E0B10120096881F850005A
:104C5000FFF7C5FFAA480068006940084042AC4918
:104C6000086008460068AB490860A9480068AA497E
:104C70000860A7480068A94908600020A8490860A2
:104C800004E040F2CF71944803F082FE9C48006833
:104C90000028CAD09A48006890F82000A1490870FE
:104CA0000846007800F0010048B300209E490860E3
:104CB000FF209E49087087480078F8B19A499439D6
:104CC0000968012901D0012100E00021084698B1BE
:104CD0009749097881B18A490968096800290BDD7B
:104CE00094490968724A11600121684A1170844927
:104CF000096809698A4A11608D49087005E0012038
:104D0000894908608949087000BF8648007800F02A
:104D1000020058B3002088490860FF20834948708A
:104D20006C48007808B300E0F7E18349643909680A
:104D3000012901D0012100E00021084698B17F49F6
:104D4000097881B16E490968496800290BDD794904
:104D50004968574A516001214D4A117068490968F4
:104D600009696F4A11607549087005E001207249B0
:104D700008606E49487000BF6A48007800F004007F
:104D800050B301206C490C310860FF2067498870DE
:104D900050480078F8B1684960390968012901D0A4
:104DA000012100E00021084698B16549097881B1E8
:104DB00053490968896800290BDD5E4989683C4AC6
:104DC00091600121334A11704D4909680969544ABB
:104DD00011605B49087007E0002057490C310860FA
:104DE00001205249887000BF4E48007800F008004A
:104DF00038B10020504918310860FF204B49C87075
:104E000005E001204C49183108604849C87000206D
:104E1000FBE03B49096809683D4A126811443C4A75
:104E2000116011460968002917DD01213E4A121D53
:104E30001160334909680969354A1268511A344AC0
:104E400011603C490968394A92F900201144394AF5
:104E5000116000213B4AC2F8B0112949096849682C
:104E60002C4A126811442B4A116011460968002926
:104E700077DD0121304A121D116021490968096955
:104E8000244A1268511A234A11605EE02001002072
:104E900021010020220100206563686F3A000000B4
:104EA000656E6473746F7073206869743A200000D3
:104EB000001100203006002020583A25660000002E
:104EC00020593A2566000000205A3A256600000065
:104ED0000A0000002601002000040040120100200A
:104EE00080841E00537465707261746520746F2035
:104EF000686967683A200000256400000C01002002
:104F0000EC00002014010020100100200801002006
:104F1000F4000020F8000020FC0000200001002028
:104F200004010020F0000020AC8122422701002073
:104F3000230100200C1100208801244224010020BC
:104F400025010020008022420BE0FA494968FA4A14
:104F500092F901201144F74A51600021F74AC2F842
:104F60008C11F74909688968F64A12681144F54AB4
:104F7000116011460968002916DD0121F24A11600D
:104F8000EF4909680969EF4A1268511AED4A116040
:104F9000E8498968E84A92F902201144E54A91609B
:104FA0000021E64AC2F89811E5490968C968E74A4C
:104FB00012681144E54A116011460968002916DD9E
:104FC0000121E34A1160DE4909680969DF4A126874
:104FD000511ADE4A1160D749C968D74A92F90320AD
:104FE0001144D44AD1600021DA4AC2F89811DA4952
:104FF0000968491CD84A1160D149096809691268D1
:10500000914200D806E0411CC8B2D44909788842D0
:10501000FFF6FFAE00BFCA4800684069CE49096884
:1050200088422ED3CE480068C5490968C96980FB0B
:105030000101000E40EA0120CA490880C04800680A
:10504000B0F8400009880844C6490880BC48006898
:10505000C06B0988884204D2B9480068808FC14972
:105060000880C0480088FFF78AFD0446601E81B2B0
:10507000BD4803F08DFCBA4800682044B849086078
:105080003FE0AF4800688069B3490968884231D27F
:10509000B6480068AA490968C96980FB0110020284
:1050A00042EA116085B2AF480088854205DDA44818
:1050B0000068B0F8440085B203E0AA480088401BAD
:1050C00085B29F480068406CA84204D99C4800689B
:1050D000B0F8440085B22846FFF751FD0446601E33
:1050E00081B2A14803F054FCA048006820449F49C5
:1050F000086006E09E480088401E81B29A4803F08E
:1051000047FC8F480068006993490968884204D8C1
:1051100000208B490860FFF770FC70BD00B585B0BA
:1051200001214FF49A7002F005FB10208DF8130056
:1051300003208DF812004FF46040ADF8100004A970
:105140008C4802F03BF8C020ADF8100004A98A4852
:1051500002F034F84FF46050ADF8100004A987480D
:1051600002F02CF84FF4FE70ADF8100004A984484A
:1051700002F024F801214FF4907002F0DBFA402095
:10518000ADF8100048208DF8130004A97B4802F008
:1051900015F84FF46640ADF8100048208DF8130064
:1051A00004A9774802F00AF80120764908606349AB
:1051B000C1F890016449091D08606549091D08602E
:1051C0007149086000206F49091F08605E490C3969
:1051D00008605D4908605E4908606C49C1F8B80123
:1051E0000121022002F0B3FA4FF48040ADF808002C
:1051F0002320ADF804000020ADF80A00ADF8060049
:1052000001A9594802F0D2FD01221146564803F087
:1052100044F91D208DF8000000208DF801000320C6
:105220008DF8020001208DF80300684601F0FDFEB4
:1052300001214D4803F016F9012211464A4803F0B6
:105240002CF90120FFF78AFC05B000BD10B503E082
:1052500000F0D8FCFBF72BFCFFF7F3FB0028F7D19D
:1052600010BD10B572B6334C20606160A260E3607F
:1052700062B610BD72B62F49C86062B6704701466B
:1052800072B62C4A52F8210062B6704710B5FFF78B
:10529000DDFF01203B4908602849C1F890012A49F7
:1052A000091D08602A49091D08603749086010BDBA
:1052B00010B5002201212C4803F0EFF801E0FFF7C0
:1052C0009CFBFFF7BEFB0028F9D11D4908600122B5
:1052D0001146254803F0E1F810BD70470CB50246B1
:1052E0000B462BA103C9CDE900011DF802001946A8
:1052F000FFF7F3FF0CBD1CB527A103C9CDE90001E1
:10530000002405E01DF80410E0B2FFF7E7FF641C7D
:10531000042CF7DD1CBD704730B505460C46052D45
:105320004CD2DFE805F0033F424548001C480470BA
:1053300045E000000C11002027010020000024425D
:10534000EC000020FC000020980124420001002015
:105350009801224200002242040100201201002094
:105360000801002010010020000400400C01002072
:105370001401002000080140001001400014014009
:1053800000200140B4812242BC01214200002142A0
:10539000040100020300000064646464640000000F
:1053A000E40000204248047009E04248047006E02E
:1053B0004148047003E04148047000E000BF00BFB2
:1053C000102C2CD008DC012C0DD0022C12D0042C77
:1053D00017D0082C3FD11BE0202C27D0402C2CD0FC
:1053E000802C38D130E000231A4619462846FFF7B2
:1053F00092FF31E000231A4601212846FFF78BFF78
:105400002AE00023012219462846FFF784FF23E003
:105410000023012211462846FFF77DFF1CE00123EF
:10542000002211462846FFF776FF15E001230022EF
:1054300019462846FFF76FFF0EE001231A460021A8
:105440002846FFF768FF07E001231A461946284659
:10545000FFF761FF00E000BF00BF30BD10B50024C2
:1054600004E0E0B20821FFF757FF641C042CF8DDCC
:1054700010BD10B512A003F09DFF1648017816A0CC
:1054800003F098FF0A48017815A003F093FF09483C
:10549000017815A003F08EFF0748017814A003F0EF
:1054A00089FF0648017814A003F084FF10BD0000B6
:1054B000E5000020E6000020E7000020E8000020D2
:1054C0004D6F746F725F53756273656374696F6E4D
:1054D000200A0000E4000020583A2025640A000059
:1054E000593A2025640A00005A3A2025640A00002F
:1054F00045303A2025640A0045313A2025640A00E7
:105500002DE9F84F0546002601243EE0F84830F921
:105510002400A84237DDF64931F92420611EF44BFE
:1055200033F92110501A08F0D9FC8146F04901EBFB
:105530008401B1F90220611EED4B03EB8101B1F949
:105540000210501A08F0CAFC8246611EE84A32F97D
:105550002110681A08F0C2FC8346514608F01EFD6F
:105560008046494608F088FB0746611EE04A02EB88
:105570008101B1F9020008F0B1FC3946009008F051
:105580000DFB064603E0601CC4B23D2CBED300BF39
:105590003D2C08D1611ED64A02EB8101B1F902000F
:1055A00008F09CFC06463046BDE8F88F2DE9FE4F1A
:1055B00007460E46012E0BDBCEA003F0FBFE314664
:1055C000CEA003F0F7FECEA003F0F4FEFBF758FAEE
:1055D000D34850F82600002852D04FF00008D04899
:1055E00050F82650012437E035F92400B84231DD67
:1055F00035F92420611E35F92110501A08F06EFC8F
:1056000005EB84010190B1F90220611E05EB8101D7
:10561000B1F90210501A08F061FC8346611E35F999
:105620002110781A08F05AFC5946009008F0B6FC90
:105630008246019908F020FB8146611E05EB81013D
:10564000B1F9020008F04AFC4946029008F0A6FAB7
:10565000804605E0601CC4B2B248805DA042C3DC55
:1056600000BFB048805DA04207D1611E05EB8101FB
:10567000B1F9020008F032FC80464046BDE8FE8FDA
:105680000020FBE710B500240AE0A74951F82400E8
:105690002146FFF78BFFA54941F82400601CC4B2E6
:1056A000012CF2DBA2480068FFF72AFFA14908603D
:1056B00001F0A5F972B600209F49087062B610BDCE
:1056C00010B504469D49204608F034FD03D29620CB
:1056D0009B49086004E0204608F0C4FB9849086034
:1056E00010BD70B505460C460021284608F086FB23
:1056F00003D100209349086002E00120914908602D
:105700009149284608F016FD05D240F213108F4942
:1057100041F8240005E0284608F0A4FB8B4941F835
:10572000240070BD10B5002086490860002404E004
:10573000E1B20020FFF7D5FF641C012CF8DB00204C
:10574000FFF7BEFF00208149086081490870814948
:1057500008807B490860804908707E49091D0880DF
:1057600010BD2DE9F74F96B082460C4600201590EB
:10577000804601201490794800681390139F139F6E
:10578000B9460020129011900B9075480A90012C98
:1057900005DD74A003F00EFE19B0BDE8F08F7CA00B
:1057A00003F008FEFFF7BEFF002C05DA80206A49EF
:1057B000087080252E4604E0802065490855802524
:1057C0002E4600BF5C48007801286ED1FFF75AFFD3
:1057D000002C02DA5748006802E0544850F82400D0
:1057E000159015990B9808F0A5FC01D20B9800E0D4
:1057F00015980B9015990A9808F09CFB01D20A980D
:1058000000E015980A901498012822D15046159965
:1058100008F090FB1DD251480068A0EB090041F24E
:105820008831884215D900201490002C05DAA81B75
:10583000C0F347004849087004E0A81BC0F34700C4
:105840004349085545480768A7EB09001290CDF871
:105850002CA014980028B8D15046159908F06AFC7D
:1058600023D23E480068C01B41F2883188421CD9CF
:10587000012014903948D0F80090A9EB070011904E
:10588000B8F1000F33DDDDE91110401A7043129AB0
:10589000114490FBF1F00544142D01DA142014E0BA
:1058A000002C03DA4FF4807002E048E14FF480707E
:1058B0001438A84208DA002C02DA4FF4807001E0B4
:1058C0004FF48070143800E028460546002C02DAB8
:1058D0004FF4807101E04FF4807101EBD171B5EBB1
:1058E000610F64DD002C5DDA4FF480705CE0FDE058
:1058F000E0E300084572726F723A00002564000010
:10590000202D20496E76616C69642065787472750B
:10591000646572206E756D62657220210000000062
:10592000940100209801002034010020380100205B
:105930003C010020400100205001002000001643DF
:105940003001002084012142008089432C01002085
:105950007C010020383401407D010020A801002096
:1059600000401C46504944204175746F74756E6543
:10597000206661696C65642E2042616420657874DC
:105980007275646572206E756D6265722E0000001E
:10599000504944204175746F74756E65207374614D
:1059A000727400004FF48070401E461B00E02E46CB
:1059B0002946FAA003F0FEFC3146FBA003F0FAFCF6
:1059C0000A9808F0BFF802460B46CDE90801F8A096
:1059D00003F0F0FC0B9808F0B5F802460B46CDE951
:1059E0000801F6A003F0E6FCB8F1020F7EDDDDE968
:1059F0000A1008F0D1FB834608F0A4F8F24AF34BF2
:105A0000CDE9000107F08EFD00224FF08043CDE983
:105A1000020107F02FFBCDE90601304607F01BFD20
:105A20000022EB4BCDE9020107F07CFDCDE904013A
:105A3000DDE9062307F01EFBCDE9080107F02CFA8B
:105A40001090DDE91112881808F048FA834608F032
:105A500079F80022DF4BCDE9060107F00BFBCDE919
:105A6000080107F019FA0F90109808F06BF8024639
:105A70000B46CDE90801D8A003F09CFC0F9808F074
:105A800061F802460B46CDE90801D5A003F092FC6F
:105A9000109808F057F84FF03332D34BCDE9060198
:105AA00007F040FDCDE9080107F0F6F90E904FF040
:105AB00080400E9908F072FA83460F9908F0DCF8DE
:105AC0000D90DDE90E0108F069FA83464FF082413E
:105AD00008F0D2F80C90C5A003F06CFC0E9808F00A
